:100000000C9447000C9470080C9470080C947008C1
:100010000C9470080C9470080C9470080C94700880
:100020000C9470080C9470080C9470080C94700870
:100030000C9470080C9470080C9470080C94700860
:100040000C9470080C9470080C9470080C94700850
:100050000C949D060C94EA040C9470080C9470089F
:100060000C9470080C9470080C9470080C94700830
:100070000C94C9060C942A050C9470080100010A1E
:1000800080010A01100010E4011001148000112405
:100090001FBECFEFD0E1DEBFCDBFECE7F0E040E028
:1000A00017C0B591A59135912591059107FD0CC01B
:1000B00095918591EF01F92FE82F05900D92A217E8
:1000C000B307D9F7FE0104C01D92A217B307E1F7E9
:1000D000ED38F40731F70E9465070C946F00F8942F
:0200E000FFCF50
:1000E2004D65692052533233322074E473742077A1
:0C00F200696620656664E4666F706E004D
:1000FE002F923F924F926F927F928F929F92AF92DA
:10010E00BF92CF92DF92EF92FF920F931F93CF93F6
:10011E00DF93CDB7DEB762970FB6F894DEBF0FBE92
:10012E00CDBF6C013A01862E7901FC011086178233
:10013E00848181FFE7C19E012F5F3F4F3D872C8752
:10014E00C901A0E8888B998BAA8B9FE3992EF301A6
:10015E00849187FC8081882309F4D0C1482D9301B6
:10016E002F5F3F4F4F4F853219F03901842E0AC051
:10017E00F901849147FD808192E0690E711C811C0A
:10018E00853229F4B60190E00E946A05E0CFB12CC9
:10019E0000E010E01032A0F48B3269F030F48032BF
:1001AE0059F0833269F410612CC08D3239F08033EE
:1001BE0039F4116026C01260146023C0186021C08B
:1001CE0017FD29C090ED980F9A3078F416FF06C0EF
:1001DE00AAE0BA9E900D1124B92E13C0EAE00E9F2C
:1001EE00900D1124092F10620CC08E3221F416FDD1
:1001FE0085C1106406C08C3611F4106802C08836B2
:10020E0051F4F301849187FC8081FFEF6F1A7F0A0E
:10021E008F0A8111BFCF982F9F7D9554933028F46C
:10022E0024E0E20EF11C99820FC0833631F0833741
:10023E0091F0833509F063C027C0F701808189836F
:10024E0097012E5F3F4F7901288839884A88AA2462
:10025E00A394B12C17C0A7014D5F5F4F5F874E87E8
:10026E00F70120803180428016FF03C04B2D50E0F5
:10027E0002C04FEF5FEF842DB1010E94BD075C01FC
:10028E00EE84FF841F7718C097012D5F3F4F3F8785
:10029E002E87F70120803180428016FF03C04B2D40
:1002AE0050E002C04FEF5FEF842DB1010E94BD07F9
:1002BE005C011068EE84FF8413FD1DC0802F90E05A
:1002CE00A816B906C0F4B60180E290E00E946A0555
:1002DE000150F4CFF101849147FC8081FFEF2F1A7A
:1002EE003F0A4F0AB60190E00E946A0501110150C3
:1002FE0021E0A21AB108A114B10461F7F5C0843649
:10030E0011F0893671F5F70117FF08C06081718110
:10031E008281938197012C5F3F4F09C0608171816B
:10032E00072E000C880B990B97012E5F3F4F79011A
:10033E001F76312E97FF0AC0909580957095619526
:10034E007F4F8F4F9F4F312F3068332E2AE030E092
:10035E00AE014F5F5F4F0E944004482E4C85441AF9
:10036E004AC0853729F41F7EA12E2AE030E025C031
:10037E00512F597FA52E8F36C1F018F4883579F09C
:10038E00BDC0803719F0883721F0B8C0852F806145
:10039E00A82EA4FE0DC09A2D9460A92E09C014FF9C
:1003AE000AC0A52FA660AA2E06C028E030E005C020
:1003BE0020E130E002C020E132E0F701A7FE08C0E4
:1003CE006081718182819381A7014C5F5F4F07C06D
:1003DE006081718180E090E0A7014E5F5F4F7A01EE
:1003EE00AE014F5F5F4F0E944004482E5C85451A58
:1003FE008A2D8F77382E36FE0DC0932D9E7FA92E17
:10040E004B1458F434FE0BC032FC09C0A32DAE7E43
:10041E00AA2E05C0142DA32C03C0142D01C01B2D14
:10042E00A4FE0EC0FE01E40DF11D8081803321F487
:10043E00EA2DE97EAE2E08C0A2FE05C01E5F04C0E6
:10044E008A2D867809F01F5FA3FC11C0A0FE06C09E
:10045E00101788F4040DB02EB11A0EC0101760F4E8
:10046E00B60180E290E00E946A051F5FF7CF101779
:10047E0018F4011B02C0B42C00E0A4FE10C0B6019B
:10048E0080E390E00E946A05A2FE17C0A1FC03C0A3
:10049E0088E790E002C088E590E0B6010CC08A2D96
:1004AE00867859F0A1FE02C08BE201C080E2A7FC63
:1004BE008DE2B60190E00E946A054B1438F4B60145
:1004CE0080E390E00E946A05BA94F7CF4A94E1E087
:1004DE00F0E0EC0FFD1FE40DF11D8081B60190E000
:1004EE000E946A054110F2CF002309F430CEB60106
:1004FE0080E290E00E946A050150F6CFF6018781F6
:10050E00908502C08FEF9FEF62960FB6F894DEBF14
:10051E000FBECDBFDF91CF911F910F91FF90EF9046
:10052E00DF90CF90BF90AF909F908F907F906F9005
:08053E004F903F902F900895AB
:100546000F931F93CF93DF938230910510F482E0CF
:1005560090E0E0910201F091030120E030E0A0E09C
:10056600B0E0309719F1408151810281138148171B
:100576005907C8F08417950769F4109731F0129659
:100586000C93129713961C9327C0009302011093A5
:10059600030122C02115310519F04217530718F43B
:1005A6009A01BD01EF01DF01F801DBCF211531050D
:1005B600F9F0281B390B2430310580F48A819B81A0
:1005C6006115710521F0FB019383828304C090932A
:1005D600030180930201FE01329644C0FE01E20F40
:1005E600F31F8193919322503109398328833AC0AE
:1005F6002091000130910101232B41F420910C013F
:1006060030910D01309301012093000120910A01E0
:1006160030910B012115310541F42DB73EB74091BC
:100626000E0150910F01241B350BE0910001F09152
:100636000101E217F307A0F42E1B3F0B2817390719
:1006460078F0AC014E5F5F4F2417350748F04E0F28
:100656005F1F50930101409300018193919302C063
:10066600E0E0F0E0CF01DF91CF911F910F91089567
:10067600CF93DF93009709F481C0FC013297138270
:100686001282A0910201B0910301109781F420819A
:100696003181820F931F20910001309101012817AB
:1006A600390751F5F0930101E093000167C0ED01B0
:1006B60020E030E0CE17DF0740F44A815B819E01DF
:1006C60041155105F1F0EA01F5CFD383C28340818C
:1006D6005181840F951FC817D90759F488819981CC
:1006E600840F951F0296918380838A819B819383D1
:1006F60082832115310529F4F0930301E093020169
:100706003DC0E901FB83EA8349915991C40FD51F86
:10071600EC17FD0761F480819181840F951F029685
:10072600E90199838883828193819B838A83E0E0B0
:10073600F0E012968D919C911397009719F0FD01A8
:10074600DC01F7CF8D919C9111979D012E5F3F4F54
:10075600820F931F2091000130910101281739075C
:1007660069F4309729F4109203011092020102C035
:1007760013821282B0930101A0930001DF91CF9101
:020786000895D4
:100788008F929F92AF92BF92EF92FF920F931F9317
:10079800CF93DF9300D000D0CDB7DEB749835A831B
:1007A8006B837C83823008F053C048015901182FAD
:1007B80065E070E081E090E00E9485077C01009789
:1007C80009F449C0FC0110838A810E941E07F701C1
:1007D8009283818389810E941E07F7019483838312
:1007E80021813281232B11F0892B31F4C7010E941A
:1007F800F50680E090E031C0F894113049F09E0190
:100808002F5F3F4FB501A401C7010E94130608C01E
:100818009E012F5F3F4FB501A401C7010E94420608
:10082800012F10E0F801EE0FFF1FE05FFE4F8081FF
:100838009181009711F00E94F506000F111FF80131
:10084800E05FFE4FF182E08278948E2D9F2D05C0E7
:1008580080E090E002C080E090E00F900F900F9051
:100868000F90DF91CF911F910F91FF90EF90BF9064
:08087800AF909F908F9008954E
:10088000FA01AA27283051F1203181F1E8946F93C1
:100890006E7F6E5F7F4F8F4F9F4FAF4FB1E03ED067
:1008A000B4E03CD0670F781F891F9A1FA11D680F05
:1008B000791F8A1F911DA11D6A0F711D811D911D38
:1008C000A11D20D009F468943F912AE0269F1124AD
:1008D0003019305D3193DEF6CF010895462F477011
:1008E000405D4193B3E00FD0C9F7F6CF462F4F706C
:1008F000405D4A3318F0495D31FD4052419302D0CA
:10090000A9F7EACFB4E0A69597958795779567956F
:10091000BA95C9F700976105710508959B01AC016F
:100920000A2E06945795479537952795BA95C9F796
:0C093000620F731F841F951FA01D089507
:10093C000F931F93CF93DF93009731F461157105DB
:10094C0019F480E090E03BC08B01EC016FE070E0AB
:10095C0081E090E00E948507FC01892B91F380E8EF
:10096C0084830115110569F01487038781E884835A
:10097C00A4E0B1E08D919C911197892B11F4ED932A
:10098C00FC932097D9F0D287C187848182608483BD
:10099C00A4E0B1E012968D919C911397892B71F480
:1009AC001396FC93EE93129714968D919C91159738
:1009BC00892B21F41596FC93EE931497CF01DF91BC
:0809CC00CF911F910F910895D6
:1009D4001F920F920FB60F9211242F933F934F93B0
:1009E4005F936F937F938F939F93AF93BF93EF9393
:1009F400FF93CF93DF931F92CDB7DEB7E091100141
:100A0400F0911101BE016F5F7F4F818192810E943D
:100A1400F307882321F089818093C60005C0E1ECA7
:100A2400F0E080818F7D80830F90DF91CF91FF91E3
:100A3400EF91BF91AF919F918F917F916F915F9152
:100A44004F913F912F910F900FBE0F901F901895CB
:100A54001F920F920FB60F9211242F933F934F932F
:100A64005F936F937F938F939F93AF93BF93EF9312
:100A7400FF93CF93DF931F92CDB7DEB7E0911201BE
:100A8400F0911301BE016F5F7F4F818192810E94BB
:100A9400F307882321F089818093CE0005C0E9EC17
:100AA400F0E080818F7D80830F90DF91CF91FF9163
:100AB400EF91BF91AF919F918F917F916F915F91D2
:100AC4004F913F912F910F900FBE0F901F9018954B
:100AD4000F931F93CF93DF93FB01248121FD03C068
:100AE4008FEF9FEF2CC022FF16C0478150852581D0
:100AF40036814217530744F4A081B1819D012F5FD1
:100B04003F4F318320838C93278130852F5F3F4F64
:100B14003087278314C08B01EC01FB010184F2852B
:100B2400E02D0995892BE1F6D80117968D919C91BA
:100B34001897019618969C938E931797CE01DF9180
:080B4400CF911F910F9108955C
:100B4C000F931F93CF93DF9300D000D000D0CDB77D
:100B5C00DEB7AC0119821A821B821C8210C08D81F7
:100B6C009E8101969E838D8389819A81AB81BC8104
:100B7C000196A11DB11D89839A83AB83BC839A0115
:100B8C00A6E9B0E00E945A0809811A812B813C81A8
:100B9C00061717072807390710F326960FB6F8948F
:100BAC00DEBF0FBECDBFDF91CF911F910F91089586
:100BBC00EF92FF920F931F93CF93DF938C017B01E6
:100BCC00D42FC0E00CC0F701EC0FF11D6081F801CF
:100BDC00818192810E942108882319F0CF5FCD1763
:100BEC0090F3CC2391F0F8018081882319F08130A7
:100BFC0039F00BC0E1ECF0E080818062808305C0AD
:100C0C00E9ECF0E08081806280838C2FDF91CF91C2
:0A0C1C001F910F91FF90EF900895D3
:100C2600CF93DF931F92CDB7DEB7CB01BA011092F7
:100C3600C0001092C1001092C200F9014281538196
:100C46009E012F5F3F4F0E9471069093C5008093CF
:100C5600C4008981882329F0E0ECF0E0808182607D
:100C66008083E2ECF0E0808186608083E1ECF0E056
:0E0C76008081886980830F90DF91CF9108956F
:100C8400CF93DF931F92CDB7DEB7CB01BA01109299
:100C9400C8001092C9001092CA00F9014281538120
:100CA4009E012F5F3F4F0E9471069093C500809371
:100CB400C4008981882329F0E8ECF0E08081826017
:100CC4008083EAECF0E0808186608083E9ECF0E0E8
:0E0CD4008081886980830F90DF91CF91089511
:100CE2000F931F93CF93DF93E9018A0120E030E055
:100CF200000F111F221F331F000F111F221F331F4E
:100D0200A9019801220F331F441F551F220F331FC1
:100D1200441F551F0E944307C90101971882813061
:100D220020E1920720F021E0288396958795DF91B4
:080D3200CF911F910F9108956C
:100D3A001F920F920FB60F9211242F933F934F9346
:100D4A005F936F937F938F939F93AF93BF93EF9329
:100D5A00FF936091C600E0911001F0911101838127
:100D6A0094810E942108FF91EF91BF91AF919F91C9
:100D7A008F917F916F915F914F913F912F910F903A
:080D8A000FBE0F901F90189599
:100D92001F920F920FB60F9211242F933F934F93EE
:100DA2005F936F937F938F939F93AF93BF93EF93D1
:100DB200FF936091CE00E0911201F09113018381C3
:100DC20094810E942108FF91EF91BF91AF919F9171
:100DD2008F917F916F915F914F913F912F910F90E2
:080DE2000FBE0F901F90189541
:100DEA00CF93DF93009711F1EC01F89489819A81EE
:100DFA00009711F00E9449088B819C81009711F09D
:100E0A000E9449088881813019F01092C10002C0FD
:100E1A001092C900E881F0E0EE0FFF1FE05FFE4F7D
:100E2A0011821082CE010E943B037894DF91CF9108
:020E3A00089519
:100E3C001F93CF93DF93182F65E070E081E090E073
:100E4C000E948507EC01892B91F0812F90E00E9484
:100E5C00A3029B838A83892B31F4CE010E9449081B
:100E6C0080E090E006C01C838C2F9D2F02C080E098
:0A0E7C0090E0DF91CF911F910895DF
:100E8600A1E21A2EAA1BBB1BFD010DC0AA1FBB1F88
:100E9600EE1FFF1FA217B307E407F50720F0A21BFA
:100EA600B30BE40BF50B661F771F881F991F1A9467
:100EB60069F760957095809590959B01AC01BD0191
:040EC600CF010895BB
:100ECA0000E014E224EF30E04AE054E660E875E21C
:100EDA0080E00E94C403BC0186E398E00E949E045D
:100EEA0082EE90E0A0E0AF939F938F930E940A084E
:100EFA0084EF91E00E94A6050F900F900F90F0CF1B
:100F0A000F931F93CF93DF93869F8001879F100DC6
:100F1A00969F100D1124C8010E94A302EC010097AC
:100F2A0029F0A80160E070E00E946908CE01DF9113
:080F3A00CF911F910F91089562
:100F42002F923F924F925F926F927F928F929F92D7
:100F5200AF92BF92CF92DF92EF92FF920F931F93C5
:100F6200CF93DF93CDB7DEB7CA1BDB0B0FB6F89476
:080F7200DEBF0FBECDBF0994E4
:100F7A00CF92DF92EF926B01E82EA82FCB01411599
:100F8A00510531F48C199D09EF90DF90CF900895A7
:100F9A00FC012491A7FD20812223A1F30196A11D22
:060FAA0041505109ECCF9B
:100FB0002A88398848885F846E847D848C849B84E9
:100FC000AA84B984C884DF80EE80FD800C811B81F7
:100FD000AA81B981CE0FD11D0FB6F894DEBF0FBE26
:060FE000CDBFED010895F4
:100FE600FC0180819181891781F091E0980F24811D
:100FF600291708F490E0A281B381A80FB11D8C9146
:0E100600DB018C93908381E0089580E00895D3
:10101400A0E0B0E0E0E1F8E00C94B1079E012B5FA2
:101024003F4FF9014191519161919F0180910601D6
:0E103400909107010E947F00E2E00C94E80713
:10104200FC01918181E0890F2481281708F480E056
:101052002081821741F0A281B381A90FB11D6C9347
:0A106200818381E0089580E0089585
:10106C00CF93DF931F92CDB7DEB78983CB0141E0DD
:10107C00BE016F5F7F4F0E94DE0581E090E00F9014
:06108C00DF91CF910895F1
:10109200CF93DF93009751F0EC018A819B810097F7
:1010A20011F00E943B03CE010E943B03DF91CF91DE
:0210B20008959F
:1010B400A29FB001B39FC001A39F700D811D112495
:0E10C400911DB29F700D811D1124911D089584
:0E10D200DC0101C06D9341505040E0F70895DD
:0410E0000C9400006C
:0610E400000014012000D1
:00000001FF
