S00B00005254432E7372656330
S11300000C943E000C945B000C945B000C945B001D
S11300100C945B000C945B000C945B000C945B00F0
S11300200C945B000C945B000C945B000C945B00E0
S11300300C945B000C945B000C945B000C945B00D0
S11300400C945B000C945B000C945B000C945B00C0
S11300500C9428070C9492060C945B000C945B009F
S11300600C945B000C945B000C945B000C945B00A0
S11300700C9461070C94DD060C945B0011241FBEE4
S1130080CFEFD0E1DEBFCDBF11E0A0E0B1E0E8EBFF
S1130090FBE102C005900D92A63CB107D9F721E01F
S11300A0A6ECB1E001C01D92AA3DB207E1F70E949F
S11300B09A070C94DA0D0C940000CF93DF93CDB71C
S11300C0DEB728970FB6F894DEBF0FBECDBF988772
S11300D08F8319821A821B821C8210C08D819E819B
S11300E001969E838D8389819A81AB81BC8101961F
S11300F0A11DB11D89839A83AB83BC838F819885AD
S11301009C0140E050E086E990E0DC010E94310966
S11301109B01AC0189819A81AB81BC8182179307D1
S1130120A407B507D8F2000028960FB6F894DEBFEE
S11301300FBECDBFDF91CF910895CF93DF93CDB79D
S1130140DEB72B970FB6F894DEBF0FBECDBF9F83EB
S11301508E83488759876A877B8719825AC08E8124
S11301609F819C0140E050E088859985AA85BB85E4
S1130170BC01CD010E940F09DA01C9014097A10910
S1130180B1092981222F30E02A5F3E4FF9012081F5
S1130190222F30E0220F331F032E000C440B550B8B
S11301A0BC01CD010E940F09DA01C9018A839B8336
S11301B0AC83BD838A819B81AC81BD818F3F9105D6
S11301C0A105B10509F010F588E290E028E230E0DD
S11301D0F90120812360FC01208387E290E027E27B
S11301E030E0F90120812C7FFC01208389EB90E031
S11301F029EB30E0F90130812A81232BFC01208393
S113020088EB90E02E81FC01208307C089818F5FF9
S113021089838981843008F4A2CF8A819B81AC814F
S1130220BD818F3F9105A105B10519F010F080E063
S113023001C081E02B960FB6F894DEBF0FBECDBF90
S1130240DF91CF910895CF93DF93CDB7DEB7279792
S11302500FB6F894DEBF0FBECDBF8B837D836C8356
S11302605F834E830E94C701882311F480E02CC071
S11302708B818E7F0E94FE01882321F40E94F1016C
S113028080E022C01A82198215C02C813D818981A7
S11302909A81820F931FFC0180810E943A02882375
S11302A021F40E94F10180E00FC089819A810196B6
S11302B09A83898329813A818E819F8128173907FE
S11302C020F30E94F10181E027960FB6F894DEBF77
S11302D00FBECDBFDF91CF910895CF93DF93CDB7FC
S11302E0DEB727970FB6F894DEBF0FBECDBF8B8362
S11302F07D836C835F834E830E94C701882311F43E
S113030080E03CC08B8181600E94FE01882321F43F
S11303100E94F10180E032C01A82198213C02C813C
S11303203D8189819A81820F931F0E9462028823F2
S113033021F40E94F10180E021C089819A81019613
S11303409A8389838E819F819C01215031098981FF
S11303509A818217930718F38E819F8101972C81CC
S11303603D81820F931F0E949002882321F40E94F2
S1130370F10180E003C00E94F10181E027960FB6ED
S1130380F894DEBF0FBECDBFDF91CF910895CF9318
S1130390DF93CDB7DEB78CEB90E024EAFC01208339
S11303A000008CEB90E0FC0180818823D4F789EB7A
S11303B090E0FC018081882F90E0887F992708973E
S11303C061F089EB90E0FC018081882F90E0887FC8
S11303D09927409711F080E001C081E0DF91CF912F
S11303E00895CF93DF93CDB7DEB78CEB90E024E98B
S11303F0FC0120830000DF91CF910895CF93DF9318
S11304001F92CDB7DEB789838BEB90E02981FC0185
S113041020838CEB90E024E8FC01208300008CEB2B
S113042090E0FC0180818823D4F78981882F90E0B3
S113043081709927892B69F089EB90E0FC01808118
S1130440882F90E0887F99278034910571F080E0AF
S11304500DC089EB90E0FC018081882F90E0887FBB
S11304609927489711F080E001C081E00F90DF9157
S1130470CF910895CF93DF931F92CDB7DEB78983D1
S11304808BEB90E02981FC0120838CEB90E024E845
S1130490FC01208300008CEB90E0FC018081882328
S11304A0D4F789EB90E0FC018081882F90E0887F6D
S11304B09927889711F080E001C081E00F90DF91C7
S11304C0CF910895CF93DF9300D0CDB7DEB79A8351
S11304D089838CEB90E024ECFC01208300008CEBFE
S11304E090E0FC0180818823D4F789EB90E0FC0143
S11304F08081882F90E0887F99278035910511F0BD
S113050080E009C08BEB90E0FC01208189819A8115
S1130510FC01208381E00F900F90DF91CF9108952B
S1130520CF93DF9300D0CDB7DEB79A8389838CEB6A
S113053090E024E8FC01208300008CEB90E0FC01B7
S113054080818823D4F789EB90E0FC018081882F97
S113055090E0887F99278835910511F080E009C0E3
S11305608BEB90E0FC01208189819A81FC0120833E
S113057081E00F900F90DF91CF910895CF93DF9397
S1130580CDB7DEB744E050E060E070E08AEC91E083
S11305900E94880A0000DF91CF910895CF93DF93E2
S11305A000D000D0CDB7DEB79A8389837C836B8378
S11305B089819A819093CB018093CA018B819C811C
S11305C09093CD018093CC0100000F900F900F9079
S11305D00F90DF91CF9108950F931F93CF93DF93E3
S11305E0CDB7DEB760970FB6F894DEBF0FBECDBFB0
S11305F0998788877B876A875D874C872E87188BC6
S11306000F878091CA019091CB01892B61F147E05A
S113061050E060E070E0CE0101960E94880A88856F
S113062099859A8389838A859B859C838B838C8512
S11306309D859E838D838E858F838091CA01909141
S1130640CB01892B89F02091CA013091CB01809193
S1130650CC019091CD014F855889BC01CE01019602
S1130660F901099501C0000060960FB6F894DEBF49
S11306700FBECDBFDF91CF911F910F910895CF93FE
S1130680DF9300D01F92CDB7DEB78B8365E070E0B7
S113069081E090E00E944B099A83898389819A8141
S11306A0892B19F480E090E020C08B81882F90E0A2
S11306B00E9467099C0189819A81FC01338322830A
S11306C089819A81FC0182819381892B39F4898102
S11306D09A810E947B0380E090E007C089819A811F
S11306E02B81FC01248389819A810F900F900F90B4
S11306F0DF91CF910895CF93DF9300D0CDB7DEB7CC
S11307009A83898389819A81892B99F089819A8135
S1130710FC0182819381892B39F089819A81FC01C2
S1130720828193810E94FF0989819A810E94FF0935
S113073001C000000F900F90DF91CF910895CF93E7
S1130740DF9300D000D0CDB7DEB79B838A836C8360
S11307508A819B81FC018181898389818F5F89835F
S11307608A819B81FC0194818981891748F08A815F
S11307709B81FC0190818981981711F480E016C057
S11307808A819B81FC01228133818A819B81FC01C6
S11307908181882F90E0820F931F2C81FC0120839C
S11307A08A819B812981FC01218381E00F900F9034
S11307B00F900F90DF91CF910895CF93DF9300D0E6
S11307C000D01F92CDB7DEB79B838A837D836C8371
S11307D08A819B81FC01808189838A819B81FC01C0
S11307E091818981981711F480E024C089818F5FF9
S11307F089838A819B81FC0194818981891708F00E
S113080019828A819B81FC01228133818A819B81A7
S1130810FC018081882F90E0820F931FFC012081CE
S11308208C819D81FC0120838A819B812981FC012B
S1130830208381E00F900F900F900F900F90DF9125
S1130840CF9108950F931F93CF93DF93CDB7DEB766
S113085029970FB6F894DEBF0FBECDBF9B838A8362
S11308604C835D836E837F833987288780EC90E097
S1130870FC01108281EC90E0FC01108282EC90E09B
S1130880FC01108204EC10E088859985FC0142810A
S113089053818C819D81AE81BF819E012F5F3F4F2B
S11308A0BC01CD010E94E004F80191838083898119
S11308B0882349F080EC90E020EC30E0F9012081BD
S11308C02260FC01208382EC90E022EC30E0F9010C
S11308D020812660FC01208381EC90E021EC30E053
S11308E0F90120812869FC012083000029960FB6B4
S11308F0F894DEBF0FBECDBFDF91CF911F910F9152
S113090008950F931F93CF93DF93CDB7DEB7299745
S11309100FB6F894DEBF0FBECDBF9B838A834C8392
S11309205D836E837F833987288788EC90E0FC01A0
S1130930108289EC90E0FC0110828AEC90E0FC01CA
S1130940108204EC10E088859985FC014281538172
S11309508C819D81AE81BF819E012F5F3F4FBC0181
S1130960CD010E94E004F80191838083898188236A
S113097049F088EC90E028EC30E0F9012081226015
S1130980FC0120838AEC90E02AEC30E0F90120811C
S11309902660FC01208389EC90E029EC30E0F90129
S11309A020812869FC012083000029960FB6F89461
S11309B0DEBF0FBECDBFDF91CF911F910F91089580
S11309C0CF93DF93CDB7DEB72A970FB6F894DEBF87
S11309D00FBECDBF6B837C838D839E8358874F83EB
S11309E03A87298789859A85FC0110828F819885A9
S11309F0CC01A0E0B0E0880F991FAA1FBB1F880F8D
S1130A00991FAA1FBB1F880F991FAA1FBB1F880FFE
S1130A10991FAA1FBB1F9C01AD018B819C81AD81D5
S1130A20BE81BC01CD010E940F09DA01C901019701
S1130A309A83898389819A818130904158F089858C
S1130A409A8521E0FC01208389819A819695879576
S1130A509A83898389819A812A960FB6F894DEBF96
S1130A600FBECDBFDF91CF9108950F931F93CF9306
S1130A70DF93CDB7DEB72B970FB6F894DEBF0FBE6A
S1130A80CDBF8B834C835D836E837F8308871987F7
S1130A902A873B878B81823018F080E090E086C003
S1130AA065E070E081E090E00E944B099A838983BD
S1130AB089819A81892B19F480E090E077C089813B
S1130AC09A812B81FC01208388850E943F039C012D
S1130AD089819A81FC013283218389850E943F03A5
S1130AE09C0189819A81FC013483238389819A81C1
S1130AF0FC0181819281892B39F089819A81FC01E1
S1130B0083819481892B39F489819A810E94E1053A
S1130B1080E090E04BC0F8948B81882F90E001979F
S1130B2079F09E01285F3F4F8C819D81AE81BF810A
S1130B30E981FA81AC01BD01CF010E9422040FC0FA
S1130B409E01285F3F4F8C819D81AE81BF81E981E9
S1130B50FA81AC01BD01CF010E94810400008B81A8
S1130B60882F90E0880F991F8A539E4FFC01808143
S1130B709181892B61F08B81882F90E0880F991FD8
S1130B808A539E4FFC01808191810E94E1058B81F3
S1130B90882F90E0880F991F8A539E4F29813A81AC
S1130BA0FC0131832083789489819A812B960FB636
S1130BB0F894DEBF0FBECDBFDF91CF911F910F918F
S1130BC00895CF93DF9300D0CDB7DEB79A8389839E
S1130BD089819A81892B09F449C0F89489819A8181
S1130BE0FC0181819281892B39F089819A81FC01F0
S1130BF0818192810E947B0389819A81FC01838196
S1130C009481892B39F089819A81FC0183819481B3
S1130C100E947B0389819A81FC018081882F90E066
S1130C208130910551F08230910561F0892B59F49E
S1130C3081EC90E0FC01108206C089EC90E0FC019C
S1130C40108201C0000089819A81FC018081882F73
S1130C5090E0880F991F8A539E4FFC0111821082E5
S1130C6089819A810E94FF09789401C000000F9045
S1130C700F90DF91CF910895CF93DF9300D000D0F0
S1130C8000D0CDB7DEB79B838A837D836C834E838C
S1130C90198216C08981882F90E02C813D81820FB2
S1130CA0931FFC0120818A819B81FC0181819281B7
S1130CB0622F0E949F03882341F089818F5F89837B
S1130CC099818E81981730F301C0000089818823AF
S1130CD0F9F08A819B81FC018081882F90E0009744
S1130CE019F0019759F014C081EC90E021EC30E048
S1130CF0F90120812062FC0120830AC089EC90E084
S1130D0029EC30E0F90120812062FC0120830000FD
S1130D10898126960FB6F894DEBF0FBECDBFDF9152
S1130D20CF9108951F920F9200905F000F921124AB
S1130D302F933F934F935F936F937F938F939F93DF
S1130D40AF93BF93EF93FF93CF93DF931F92CDB7EE
S1130D50DEB78091C6019091C701FC018181928127
S1130D609E012F5F3F4FB9010E94DD03882331F0BC
S1130D7086EC90E02981FC01208309C081EC90E09D
S1130D8021EC30E0F90120812F7DFC01208300005B
S1130D900F90DF91CF91FF91EF91BF91AF919F9110
S1130DA08F917F916F915F914F913F912F910F9010
S1130DB000925F000F901F9018951F920F92009061
S1130DC05F000F9211242F933F934F935F936F9380
S1130DD07F938F939F93AF93BF93EF93FF93CF939F
S1130DE0DF931F92CDB7DEB78091C8019091C901FE
S1130DF0FC01818192819E012F5F3F4FB9010E94C6
S1130E00DD03882331F08EEC90E02981FC012083FE
S1130E1009C089EC90E029EC30E0F90120812F7DB4
S1130E20FC01208300000F90DF91CF91FF91EF919F
S1130E30BF91AF919F918F917F916F915F914F91EE
S1130E403F912F910F9000925F000F901F90189583
S1130E501F920F9200905F000F9211242F933F93E3
S1130E604F935F936F937F938F939F93AF93BF93AE
S1130E70EF93FF93CF93DF93CDB7DEB786EC90E08B
S1130E80FC0120818091C6019091C701FC018381FE
S1130E909481622F0E949F030000DF91CF91FF9104
S1130EA0EF91BF91AF919F918F917F916F915F91DE
S1130EB04F913F912F910F9000925F000F901F90E0
S1130EC018951F920F9200905F000F9211242F9398
S1130ED03F934F935F936F937F938F939F93AF93BE
S1130EE0BF93EF93FF93CF93DF93CDB7DEB78EEC31
S1130EF090E0FC0120818091C8019091C901FC011E
S1130F0083819481622F0E949F030000DF91CF911F
S1130F10FF91EF91BF91AF919F918F917F916F91CD
S1130F205F914F913F912F910F9000925F000F902E
S1130F301F901895CF93DF9300D0CDB7DEB70E94F2
S1130F40BE0260E070E080ED97E00E94CE021A825B
S1130F5019820E943D089A83898389819A810F901E
S1130F600F90DF91CF910895CF93DF9300D01F921C
S1130F70CDB7DEB789837B836A838091CE0190915C
S1130F80CF0141E09E012F5F3F4FB9010E943C0613
S1130F9081E090E00F900F900F90DF91CF91089532
S1130FA0CF93DF93CDB7DEB728970FB6F894DEBFA3
S1130FB00FBECDBF9C838B837E836D8358874F8305
S1130FC08B819C81FC018681882F90E08330910580
S1130FD079F08430910589F0019729F48AE091E051
S1130FE09A8389830FC081E191E09A8389830AC03F
S1130FF087E191E09A83898305C080E291E09A8336
S1131000898300008B819C81FC01448155818B8103
S11310109C81FC01228133818B819C81FC01808134
S1131020918168856F936F816F93652F6F934F9351
S1131030432F4F932F93292F2F938F938A818F932D
S113104089818F9387E291E0892F8F9387E291E0E2
S11310508F930E94DA0A8DB79EB70C960FB6F89458
S1131060DEBF0FBECDBF000028960FB6F894DEBFDA
S11310700FBECDBFDF91CF9108950F931F93CF93F0
S1131080DF93CDB7DEB76E970FB6F894DEBF0FBE11
S1131090CDBF88EC898384E18A8380E091EE9C83D0
S11310A08B8389819A81AB81BC818C019D0140E055
S11310B054E264EF70E080E00E9435059093CF0124
S11310C08093CE0160E070E084EB97E00E948F0A89
S11310D040E054E264EF70E088EE93E00E949D00EB
S11310E0882391F409E511E024E04BE650E06DEB30
S11310F071E082E791E00E94EC0284EF91E00E94AB
S11311005D008FEF9FEF80C084EF91E00E945D004F
S113111081E08D83CE01059641E050E0BC0180EA78
S11311200E942301882379F405E811E024E048E7CC
S113113050E06DEB71E082E791E00E94EC0284EFF5
S113114091E00E945D0084EF91E00E945D00CE0179
S1131150069645E050E0BC0181EA0E946D018823B7
S113116079F407E911E024E04EE750E06DEB71E01B
S113117082E791E00E94EC0284EF91E00E945D001E
S113118084EF91E00E945D008E81682F70E08F8172
S1131190482F50E08885282F30E08985882F90E0FB
S11311A0E72FEF936F93652F6F934F93432F4F93D5
S11311B02F93292F2F938F9389EA91E0892F8F936F
S11311C089EA91E08F93CE010B96292F2F938F9369
S11311D00E94F00A8DB79EB70C960FB6F894DEBF46
S11311E00FBECDBF1E8ECE010B968C0122E048E8C7
S11311F050E06DEB71E082E791E00E94EC0284EF35
S113120091E00E945D0086CF6E960FB6F894DEBF23
S11312100FBECDBFDF91CF911F910F910895A1E231
S11312201A2EAA1BBB1BFD010DC0AA1FBB1FEE1F5C
S1131230FF1FA217B307E407F50720F0A21BB30BA7
S1131240E40BF50B661F771F881F991F1A9469F723
S113125060957095809590959B01AC01BD01CF017F
S113126008950E943C09A59F900DB49F900DA49FE2
S1131270800D911D11240895A29FB001B39FC00158
S1131280A39F700D811D1124911DB29F700D811DAE
S11312901124911D08950F931F93CF93DF93869F7D
S11312A08001879F100D969F100D1124C8010E9484
S11312B06709EC01009729F0A80160E070E00E9442
S11312C0880ACE01DF91CF911F910F9108950F935A
S11312D01F93CF93DF938230910510F482E090E066
S11312E0E091D201F091D30120E030E0A0E0B0E041
S11312F0309719F1408151810281138148175907B0
S1131300C8F08417950769F4109731F012960C937E
S1131310129713961C9327C00093D2011093D30104
S113132022C02115310519F04217530718F49A0108
S1131330BD01EF01DF01F801DBCF21153105F9F023
S1131340281B390B2430310580F48A819B81611577
S1131350710521F0FB019383828304C09093D30130
S11313608093D201FE01329644C0FE01E20FF31FC6
S11313708193919322503109398328833AC0209173
S1131380D0013091D101232B41F4209102013091FD
S113139003013093D1012093D001209100013091B9
S11313A001012115310541F42DB73EB740910401E7
S11313B050910501241B350BE091D001F091D1012E
S11313C0E217F307A0F42E1B3F0B2817390778F018
S11313D0AC014E5F5F4F2417350748F04E0F5F1F77
S11313E05093D1014093D0018193919302C0E0E0E6
S11313F0F0E0CF01DF91CF911F910F910895CF932A
S1131400DF93009709F481C0FC01329713821282A2
S1131410A091D201B091D301109781F42081318140
S1131420820F931F2091D0013091D10128173907E1
S113143051F5F093D101E093D00167C0ED0120E0B4
S113144030E0CE17DF0740F44A815B819E014115ED
S11314505105F1F0EA01F5CFD383C2834081518174
S1131460840F951FC817D90759F488819981840F6F
S1131470951F0296918380838A819B8193838283C3
S11314802115310529F4F093D301E093D2013DC035
S1131490E901FB83EA8349915991C40FD51FEC17E5
S11314A0FD0761F480819181840F951F0296E90103
S11314B099838883828193819B838A83E0E0F0E02F
S11314C012968D919C911397009719F0FD01DC0100
S11314D0F7CF8D919C9111979D012E5F3F4F820F05
S11314E0931F2091D0013091D1012817390769F455
S11314F0309729F41092D3011092D20102C01382C2
S11315001282B093D101A093D001DF91CF910895BD
S1131510DC0101C06D9341505040E0F708950F93F2
S11315201F93CF93DF93009731F46115710519F47C
S113153080E090E03AC08B01EC016EE070E081E065
S113154090E00E944B09FC01892B91F380E883838E
S11315500115110571F01387028781E88383809157
S1131560D4019091D501892B21F4F093D501E09316
S1131570D4012097C9F0D187C08783818260838397
S11315808091D6019091D701892B71F4F093D70102
S1131590E093D6018091D8019091D901892B21F44F
S11315A0F093D901E093D801CF01DF91CF911F913E
S11315B00F910895A0E0B0E0E0EEFAE00C94B30DD2
S11315C0AE014B5F5F4FFA0161917191AF01809160
S11315D0D6019091D7010E94120BE2E00C94CF0D3A
S11315E0AEE0B0E0E6EFFAE00C94B10D0D891E898F
S11315F086E08C831A8309838FEF9FE79E838D8314
S1131600AE01475E5F4F6F89788DCE0101960E94CF
S1131610120BEF81F885E00FF11F10822E96E4E0A3
S11316200C94CD0DABE0B0E0E8E1FBE00C94A30D2D
S11316306C017B018A01FC0117821682838181FF80
S1131640CCC1CE0101963C01F6019381F70193FDD3
S1131650859193FF81917F01882309F4BAC1853272
S113166039F493FD859193FF81917F01853229F4AB
S1131670B60190E00E94090DE7CF912C212C312C6A
S1131680FFE1F315D8F08B3279F038F4803279F039
S11316908332A1F4232D20611DC08D3261F080338B
S11316A069F4232D216016C0832D8260382EE32D2A
S11316B0E4603E2E2AC0F32DF8601DC037FC2DC017
S11316C020ED280F2A3040F08E32B9F436FC81C167
S11316D0232D2064322E19C036FE06C08AE0989E5F
S11316E0200D1124922E11C0EAE02E9E200D11240B
S11316F0222EF32DF0623F2E08C08C3621F4832D68
S11317008068382E02C0883641F4F70193FD859134
S113171093FF81917F018111B3CF982F9F7D9554C1
S1131720933028F40C5F1F4F9FE399830DC08336D9
S113173031F0833771F0833509F059C021C0F801C5
S1131740808189830E5F1F4F88248394912C5301D9
S113175013C02801F2E04F0E511CF801A080B180A3
S113176036FE03C0692D70E002C06FEF7FEFC50144
S11317700E94FE0C4C018201F32DFF773F2E16C010
S1131780280122E0420E511CF801A080B18036FEEF
S113179003C0692D70E002C06FEF7FEFC5010E94A6
S11317A0F30C4C01F32DF0683F2E820133FC1BC077
S11317B0822D90E088169906B0F4B60180E290E09C
S11317C00E94090D2A94F4CFF50137FC859137FE68
S11317D081915F01B60190E00E94090D21102A94C5
S11317E021E0821A91088114910471F7E8C08436CB
S11317F011F0893641F5F80137FE07C06081718127
S1131800828193810C5F1F4F08C060817181072E14
S1131810000C880B990B0E5F1F4FF32DFF763F2EA4
S113182097FF09C090958095709561957F4F8F4F74
S11318309F4FF0683F2E2AE030E0A3010E94450D3F
S1131840882E861845C0853731F4232D2F7EB22E7D
S11318502AE030E025C0932D997FB92E8F36C1F050
S113186018F4883579F0B5C0803719F0883721F03D
S1131870B0C0E92FE061BE2EB4FE0DC0FB2DF460B4
S1131880BF2E09C034FE0AC0292F2660B22E06C01E
S113189028E030E005C020E130E002C020E132E081
S11318A0F801B7FE07C060817181828193810C5F6A
S11318B01F4F06C06081718180E090E00E5F1F4F72
S11318C0A3010E94450D882E8618FB2DFF773F2E1D
S11318D036FE0DC0232D2E7FA22E891458F434FE1B
S11318E00BC032FC09C0832D8E7EA82E05C0B82CF7
S11318F0A32C03C0B82C01C0B92CA4FE0FC0FE0158
S1131900E80DF11D8081803321F49A2D997EA92E52
S113191009C0A2FE06C0B394B39404C08A2D86788D
S113192009F0B394A3FC11C0A0FE06C0B21488F45D
S1131930280C922C9B180EC0B21460F4B60180E2FD
S113194090E00E94090DB394F7CFB21418F42B1849
S113195002C0982C212CA4FE10C0B60180E390E0B4
S11319600E94090DA2FE17C0A1FC03C088E790E005
S113197002C088E590E0B6010CC08A2D867859F043
S1131980A1FE02C08BE201C080E2A7FC8DE2B60199
S113199090E00E94090D891438F4B60180E390E0C8
S11319A00E94090D9A94F7CF8A94F301E80DF11D72
S11319B08081B60190E00E94090D8110F5CF2220AC
S11319C009F442CEB60180E290E00E94090D2A9407
S11319D0F6CFF6018681978102C08FEF9FEF2B9699
S11319E0E2E10C94BF0DFC010590615070400110C0
S11319F0D8F7809590958E0F9F1F0895FC01615034
S1131A00704001900110D8F7809590958E0F9F1F1C
S1131A1008950F931F93CF93DF93FB01238121FD3F
S1131A2003C08FEF9FEF2CC022FF16C04681578161
S1131A30248135814217530744F4A081B1819D016B
S1131A402F5F3F4F318320838C93268137812F5F13
S1131A503F4F3783268314C08B01EC01FB010084C4
S1131A60F185E02D0995892BE1F6D80116968D9123
S1131A709C911797019617969C938E931697CE0177
S1131A80DF91CF911F910F910895FA01AA27283071
S1131A9051F1203181F1E8946F936E7F6E5F7F4F37
S1131AA08F4F9F4FAF4FB1E03ED0B4E03CD0670FB3
S1131AB0781F891F9A1FA11D680F791F8A1F911D06
S1131AC0A11D6A0F711D811D911DA11D20D009F456
S1131AD068943F912AE0269F11243019305D319398
S1131AE0DEF6CF010895462F4770405D4193B3E081
S1131AF00FD0C9F7F6CF462F4F70405D4A3318F028
S1131B00495D31FD4052419302D0A9F7EACFB4E0D8
S1131B10A6959795879577956795BA95C9F7009790
S1131B206105710508959B01AC010A2E0694579531
S1131B30479537952795BA95C9F7620F731F841F88
S1131B40951FA01D08952F923F924F925F926F921E
S1131B507F928F929F92AF92BF92CF92DF92EF9239
S1131B60FF920F931F93CF93DF93CDB7DEB7CA1BBA
S1131B70DB0B0FB6F894DEBF0FBECDBF09942A88E5
S1131B80398848885F846E847D848C849B84AA848D
S1131B90B984C884DF80EE80FD800C811B81AA811A
S1131BA0B981CE0FD11D0FB6F894DEBF0FBECDBFE5
S10B1BB0ED010895F894FFCF44
S1131BB80000DA0120000104104044454255473A28
S1131BC800494E464F3A005741524E494E473A0053
S1131BD84552524F523A0025732046696C653A20A3
S1131BE825730A2046756E6374696F6E3A202573EF
S1131BF80A204C696E653A2025750A204D65737371
S1131C086167653A2025730A00496E697469616CD5
S1131C18697A6174696F6E206661696C65642E2ED9
S1131C282E002E2E2F2E2E2F536F757263652F5272
S1131C3854432E630057726974696E67206661693C
S1131C486C65642E2E2E0052656164696E67206689
S1131C5861696C65642E2E2E00253032783A253061
S1131C6832783A253032782E25303278007465730C
S1091C7874493243000030
S9030000FC
