:100000000C943E000C9448000C9448000C9448005A
:100010000C9448000C9448000C9448000C94480040
:100020000C9448000C9448000C9448000C94480030
:100030000C9448000C9448000C9448000C94480020
:100040000C9448000C9448000C9448000C94480010
:100050000C9448000C9448000C9448000C94480000
:100060000C9448000C9448000C9448000C944800F0
:100070000C9448000C9448000C94480011241FBEB6
:10008000CFEFD0E1DEBFCDBF0E94E2000C941A0199
:100090000C940000CF93DF93CDB7DEB728970FB64F
:1000A000F894DEBF0FBECDBF98878F8319821A8266
:1000B0001B821C8210C08D819E8101969E838D8340
:1000C00089819A81AB81BC810196A11DB11D898373
:1000D0009A83AB83BC838F8198859C0140E050E07C
:1000E00086E990E0DC010E9400019B01AC0189815E
:1000F0009A81AB81BC8182179307A407B507D8F218
:10010000000028960FB6F894DEBF0FBECDBFDF917A
:10011000CF910895CF93DF93CDB7DEB784E290E01F
:1001200024E230E0F9012081206BFC01208384E28D
:1001300090E024E230E0F90120812F7BFC01208354
:100140008CE490E02CE430E0F90120812165FC0191
:10015000208385E290E025E230E0F90120812061F2
:10016000FC0120830000DF91CF910895CF93DF93AE
:100170001F92CDB7DEB7898385E290E025E230E0BB
:10018000F90120812F7EFC0120838EE490E02981FB
:10019000FC01208300008DE490E0FC018081882335
:1001A000D4F785E290E025E230E0F901208120617A
:1001B000FC0120838EE490E0FC0180810F90DF91B0
:1001C000CF910895CF93DF9300D0CDB7DEB70E94D3
:1001D0008A0019820DC08981882F90E00E94B600A4
:1001E0008A8380ED97E00E944A0089818F5F89832E
:1001F00089818F3F81F788E893E10E944A00E9CF27
:100200000E940B01A59F900DB49F900DA49F800D9F
:10021000911D11240895A29FB001B39FC001A39F17
:10022000700D811D1124911DB29F700D811D11242F
:08023000911D0895F894FFCF21
:00000001FF
