:100000000C943E000C9453000C9453000C94530039
:100010000C9453000C9453000C9453000C94530014
:100020000C9453000C9453000C9453000C94530004
:100030000C9453000C9453000C9453000C945300F4
:100040000C9453000C9453000C9453000C945300E4
:100050000C9453000C9453000C9453000C945300D4
:100060000C9453000C9453000C9453000C945300C4
:100070000C9453000C9453000C94530011241FBE95
:10008000CFEFD0E1DEBFCDBF11E0A0E0B1E0ECE406
:10009000F6E002C005900D92A430B107D9F70E9496
:1000A000E6020C9424030C940000CF93DF93CDB7A9
:1000B000DEB728970FB6F894DEBF0FBECDBF988786
:1000C0008F8319821A821B821C8210C08D819E81AF
:1000D00001969E838D8389819A81AB81BC81019633
:1000E000A11DB11D89839A83AB83BC838F819885C1
:1000F0009C0140E050E086E990E0DC010E940A03A8
:100100009B01AC0189819A81AB81BC8182179307E5
:10011000A407B507D8F2000028960FB6F894DEBF02
:100120000FBECDBFDF91CF910895CF93DF93CDB7B1
:10013000DEB728970FB6F894DEBF0FBECDBF988705
:100140008F8319821A821B821C8210C08D819E812E
:1001500001969E838D8389819A81AB81BC810196B2
:10016000A11DB11D89839A83AB83BC838F81988540
:100170009C0140E050E089819A81AB81BC8182176B
:100180009307A407B50710F3000028960FB6F8945C
:10019000DEBF0FBECDBFDF91CF910895CF93DF9328
:1001A000CDB7DEB782E290E022E230E0F9012081B3
:1001B000207FFC01208381E290E021E230E0F90120
:1001C00020812F60FC01208382E290E022E230E077
:1001D000F90120812F7EFC01208381E290E021E261
:1001E00030E0F90120812061FC01208382E290E06F
:1001F00022E230E0F90120812F7DFC01208381E2A1
:1002000090E021E230E0F90120812062FC012083AE
:1002100082E290E022E230E0F90120812F7BFC01B4
:10022000208381E290E021E230E0F9012081206426
:10023000FC01208380E30E94CC0185E090E00E94D5
:10024000550080E30E94CC0181E090E00E945500BF
:1002500080E30E94CC0181E090E00E94550080E2A2
:100260000E94CC0185E090E00E94550088E20E9447
:100270002B028CE00E942B0286E00E942B020E943F
:100280009A010000DF91CF910895CF93DF9300D0C2
:1002900000D000D0CDB7DEB79C838B837E836D8387
:1002A0001A8219820FC089819A812B813C81820F29
:1002B000931FFC0180810E94730189819A810196BC
:1002C0009A83898329813A818D819E8128173907F4
:1002D00050F3000026960FB6F894DEBF0FBECDBFD8
:1002E000DF91CF910895CF93DF931F92CDB7DEB703
:1002F00089830E944D0282E290E022E230E0F9011F
:1003000020812061FC01208382E290E022E230E043
:10031000F90120812F7DFC01208389810E94CC017D
:1003200089818295807F0E94CC0100000F90DF912F
:10033000CF910895CF93DF93CDB7DEB781E00E94D0
:100340002B0282E090E00E9455000000DF91CF91E7
:100350000895CF93DF9300D01F92CDB7DEB78A8385
:100360006B838B81813021F48A818150898309C01C
:100370008B81823021F48A81815C898302C080E094
:1003800005C0898180680E942B0281E00F900F9048
:100390000F90DF91CF910895CF93DF931F92CDB748
:1003A000DEB7898381E290E021E230E0F90120812B
:1003B0002F60FC01208382E290E022E230E0F9012C
:1003C00020812F7DFC01208382E290E022E230E058
:1003D000F9012081207FFC01208382E290E022E26B
:1003E00030E0F9013081298122952F70232BFC0107
:1003F00020830E94000200000F90DF91CF910895AA
:10040000CF93DF93CDB7DEB782E290E022E230E017
:10041000F90120812F7BFC0120838AE090E00E947B
:10042000950082E290E022E230E0F9012081206430
:10043000FC0120838AE090E00E94950082E290E037
:1004400022E230E0F90120812F7BFC0120830000B3
:10045000DF91CF910895CF93DF931F92CDB7DEB791
:1004600089830E944D0282E290E022E230E0F901AD
:1004700020812F7EFC01208389810E94CC0189810B
:100480008295807F0E94CC018AE290E00E949500D4
:1004900000000F90DF91CF910895CF93DF9300D0AC
:1004A000CDB7DEB71A8219820EC089819A81019672
:1004B0009A83898389819A81893E934048F481E0B7
:1004C00090E00E9495000E946F02882371F701C09E
:1004D000000000000F900F90DF91CF910895CF930F
:1004E000DF931F92CDB7DEB70E947F028983898197
:1004F000881F8827881F0F90DF91CF910895CF9391
:10050000DF931F92CDB7DEB782E290E022E230E0C7
:10051000F90120812F7EFC0120830E94A3028983A0
:1005200089818295807F89830E94A302882F90E031
:100530008F709927982F8981892B898389810F90C2
:10054000DF91CF910895CF93DF931F92CDB7DEB7A0
:1005500081E290E021E230E0F9012081207FFC017E
:10056000208382E290E022E230E0F90120812062E3
:10057000FC01208382E290E022E230E0F901208158
:100580002064FC0120838AE090E00E94950080E2D4
:1005900090E0FC018081898382E290E022E230E0F9
:1005A000F90120812F7BFC01208389818F70898351
:1005B00081E290E021E230E0F90120812F60FC012E
:1005C000208389810F90DF91CF910895CF93DF939E
:1005D00000D0CDB7DEB70E94CE008AEF90E00E9437
:1005E000550080E091E09A83898361E081E00E9478
:1005F000A90184E690E00E94550089819A8163E018
:1006000070E00E94450180E090E00F900F90DF9134
:10061000CF9108950E941503A59F900DB49F900D52
:10062000A49F800D911D11240895A29FB001B39F36
:10063000C001A39F700D811D1124911DB29F700DEB
:0C064000811D1124911D0895F894FFCF36
:04064C005577550089
:00000001FF
