:100000000C943E000C9450000C9450000C94500042
:100010000C946E000C9450000C9450000C94500002
:100020000C9450000C9450000C9450000C94500010
:100030000C9450000C9450000C9450000C94500000
:100040000C9450000C9450000C9450000C945000F0
:100050000C9450000C9450000C9450000C945000E0
:100060000C9450000C9450000C9450000C945000D0
:100070000C9450000C9450000C94500011241FBE9E
:10008000CFEFD0E1DEBFCDBF21E0A0E0B1E001C005
:100090001D92A230B207E1F70E9452000C948E002C
:1000A0000C940000CF93DF9300D0CDB7DEB71A8257
:1000B000198288E690E028E630E0F901208121608D
:1000C000FC0120838BE690E02FE0FC0120837894F4
:1000D00089819A8101969A838983FACF1F920F9220
:1000E00000905F000F9211248F939F93CF93DF9323
:1000F000CDB7DEB7809100019091010101969093F8
:100100000101809300010000DF91CF919F918F91B9
:100110000F9000925F000F901F901895F894FFCFFA
:00000001FF
