:100000000C943E000C945B000C945B000C945B0021
:100010000C945B000C945B000C945B000C945B00F4
:100020000C945B000C945B000C945B000C945B00E4
:100030000C945B000C945B000C945B000C945B00D4
:100040000C945B000C945B000C945B000C945B00C4
:100050000C945B000C945B000C945B000C945B00B4
:100060000C945B000C945B000C945B000C945B00A4
:100070000C945B000C945B000C945B0011241FBE7D
:10008000CFEFD0E1DEBFCDBF11E0A0E0B1E0E6ED03
:10009000F6E002C005900D92A630B107D9F721E035
:1000A000A6E0B1E001C01D92AA30B207E1F70E94BC
:1000B00041010C9469030C940000CF93DF9300D0AE
:1000C0001F92CDB7DEB78B8365E070E081E090E0F2
:1000D0000E9425029A83898389819A81892B19F448
:1000E00080E090E020C08B81882F90E00E94410248
:1000F0009C0189819A81FC013383228389819A81C1
:10010000FC0182819381892B39F489819A810E9433
:10011000990080E090E007C089819A812B81FC01E1
:10012000248389819A810F900F900F90DF91CF9156
:100130000895CF93DF9300D0CDB7DEB79A8389833C
:1001400089819A81892B99F089819A81FC01828128
:100150009381892B39F089819A81FC018281938175
:100160000E94D90289819A810E94D90201C00000AF
:100170000F900F90DF91CF910895CF93DF9300D030
:1001800000D0CDB7DEB79B838A836C838A819B8145
:10019000FC018181898389818F5F89838A819B8129
:1001A000FC0194818981981708F419828A819B81C6
:1001B000FC0190818981981711F480E016C08A8132
:1001C0009B81FC01228133818A819B81FC01818199
:1001D000882F90E0820F931F2C81FC0120838A815D
:1001E0009B812981FC01218381E00F900F900F906A
:1001F0000F90DF91CF910895CF93DF9300D000D07F
:100200001F92CDB7DEB79B838A837D836C838A81FF
:100210009B81FC01808189838A819B81FC01918182
:100220008981981711F480E024C089818F5F8983C8
:100230008A819B81FC0194818981981708F4198235
:100240008A819B81FC01228133818A819B81FC010F
:100250008081882F90E0820F931FFC0120818C8188
:100260009D81FC0120838A819B812981FC0120835F
:1002700081E00F900F900F900F900F90DF91CF9132
:100280000895CF93DF9300D0CDB7DEB70E944F0122
:100290009A8389830E94A8019A838983FFCFCF9391
:1002A000DF93CDB7DEB72A970FB6F894DEBF0FBE47
:1002B000CDBF84E08D831A8219821A86CE010A96F8
:1002C0009F838E838D810E945D00998788871C8221
:1002D0001B8222C02B8188859985622F0E94BD00D8
:1002E0002E813F8188859985B9010E94FC008E810D
:1002F0009F81FC018081282F30E08B819C81281711
:10030000390729F089819A8101969A8389838B81A3
:100310009C8101969C838B838D81282F30E0C901BD
:10032000880F991F280F391F8B819C812817390747
:100330008CF6888599850E94990089819A812A96F0
:100340000FB6F894DEBF0FBECDBFDF91CF910895F9
:10035000CF93DF93CDB7DEB72F970FB6F894DEBFFC
:100360000FBECDBF84E089871A8219821C861D8644
:100370001E861F8689850E945D009B878A871C8256
:100380001B820BC02B818A859B85622F0E94BD003A
:100390008B819C8101969C838B838985282F30E0FB
:1003A0008B819C81281739076CF71E821D8211C032
:1003B0009E01245F3F4F8D819E81280F391F8A85C2
:1003C0009B85B9010E94FC008D819E8101969E83D0
:1003D0008D838985282F30E08D819E8128173907EC
:1003E0003CF718861F821AC09E01245F3F4F8F8101
:1003F0009885820F931FFC018081282F30E08F8128
:1004000098852817390729F089819A8101969A835E
:1004100089838F819885019698878F838985282F76
:1004200030E08F81988582179307F4F28A859B8547
:100430000E94990089819A812F960FB6F894DEBFA9
:100440000FBECDBFDF91CF9108950F931F93CF9330
:10045000DF93869F8001879F100D969F100D1124BA
:10046000C8010E944102EC01009729F0A80160E058
:1004700070E00E946203CE01DF91CF911F910F9136
:1004800008950F931F93CF93DF938230910510F45B
:1004900082E090E0E0910801F091090120E030E075
:1004A000A0E0B0E0309719F14081518102811381C1
:1004B00048175907C8F08417950769F4109731F069
:1004C00012960C93129713961C9327C00093080161
:1004D0001093090122C02115310519F04217530765
:1004E00018F49A01BD01EF01DF01F801DBCF2115FE
:1004F0003105F9F0281B390B2430310580F48A814D
:100500009B816115710521F0FB019383828304C0F7
:100510009093090180930801FE01329644C0FE01C8
:10052000E20FF31F8193919322503109398328837D
:100530003AC02091060130910701232B41F420910C
:1005400002013091030130930701209306012091AD
:100550000001309101012115310541F42DB73EB75D
:100560004091040150910501241B350BE0910601D7
:10057000F0910701E217F307A0F42E1B3F0B281799
:10058000390778F0AC014E5F5F4F2417350748F00C
:100590004E0F5F1F50930701409306018193919383
:1005A00002C0E0E0F0E0CF01DF91CF911F910F9109
:1005B0000895CF93DF93009709F481C0FC0132972F
:1005C00013821282A0910801B0910901109781F461
:1005D00020813181820F931F209106013091070104
:1005E0002817390751F5F0930701E093060167C01A
:1005F000ED0120E030E0CE17DF0740F44A815B8157
:100600009E0141155105F1F0EA01F5CFD383C28374
:1006100040815181840F951FC817D90759F48881EB
:100620009981840F951F0296918380838A819B8193
:10063000938382832115310529F4F0930901E09316
:1006400008013DC0E901FB83EA8349915991C40F38
:10065000D51FEC17FD0761F480819181840F951FF0
:100660000296E90199838883828193819B838A839F
:10067000E0E0F0E012968D919C911397009719F0AD
:10068000FD01DC01F7CF8D919C9111979D012E5FAB
:100690003F4F820F931F20910601309107012817C9
:1006A000390769F4309729F4109209011092080172
:1006B00002C013821282B0930701A0930601DF915A
:1006C000CF910895DC0101C06D9341505040E0F797
:0606D0000895F894FFCF2D
:0606D60000000A012000F3
:00000001FF
