S011000054696D6572546573742E7372656372
S11300000C943E000C945B000C945B000C945B001D
S11300100C945B000C945B000C945B000C945B00F0
S11300200C945B000C945B000C945B000C945B00E0
S11300300C9417060C94D1050C945B000C94B10538
S11300400C9458050C945B000C9427050C945B00ED
S11300500C945B000C945B000C945B000C945B00B0
S11300600C945B000C945B000C945B000C945B00A0
S11300700C945B000C945B000C945B0011241FBE79
S1130080CFEFD0E1DEBFCDBF11E0A0E0B1E0E6E309
S1130090F1E102C005900D92AC30B107D9F721E02F
S11300A0ACE0B1E001C01D92A132B207E1F70E94B9
S11300B05D000C9499080C940000AF92CF92EF92DB
S11300C0FF920F931F93CF93DF93CDB7DEB7A12C8D
S11300D0CC24C394E12CF12C00E010E024EF31E0B7
S11300E040E050E060E074E284EF90E00E947E0023
S11300F081E290E02FEFFC012083FFCFAF92CF92FB
S1130100EF92FF920F931F93CF93DF93CDB7DEB798
S11301102E970FB6F894DEBF0FBECDBF69837A83E6
S11301208B839C832D833E834F8358871A8709874B
S1130130FC86EB86CD86AE8689859A8590931401DC
S1130140809313018B859C859093180180931701EC
S11301508E85882F90E0009719F0019789F020C0D0
S11301602D813E814F81588589819A81AB81BC81E3
S11301700D85BC01CD010E94E3008093100112C0E3
S11301802D813E814F81588589819A81AB81BC81C3
S11301900D85BC01CD010E9432028093100102C082
S11301A080E002C0809110012E960FB6F894DEBF55
S11301B00FBECDBFDF91CF911F910F91FF90EF90B4
S11301C0CF90AF900895EF92FF920F931F93CF9328
S11301D0DF93CDB7DEB761970FB6F894DEBF0FBEDD
S11301E0CDBF69877A878B879C872D873E874F870A
S11301F0588B098B10921201109211018989882F52
S113020090E08130910509F43FC0823091051CF4DF
S1130210892B49F017C18230910509F47BC00397FB
S113022009F4C4C00FC1BE016B5F7F4F2D853E85AD
S11302304F85588989859A85AB85BC858B01BC011E
S1130240CD010E94700484E490E024E430E0F901DC
S113025020812C7FFC01208325E430E085E490E0BC
S1130260FC0140818D819E81AF81B885842BF90189
S113027080838EE690E02EE630E0F9012081216053
S1130280FC0120837894E0C0BE016B5F7F4F2D8515
S11302903E854F85588989859A85AB85BC857B01C8
S11302A0BE016F5F7F4F8B01BC01CD010E940A0329
S11302B027E430E089819A81AB81BC81F901808394
S11302C025E430E085E490E0FC0140818D819E814D
S11302D0AF81B885842BF901808384E490E024E421
S11302E030E0F90120812C7FFC01208384E490E03C
S11302F024E430E0F90120812260FC0120838EE6B1
S113030090E02EE630E0F90120812260FC01208398
S113031078949AC084E290E02FEFFC012083BE0120
S11303206B5F7F4F2D853E854F85588989859A85DA
S1130330AB85BC858B01BC01CD010E94700480910A
S1130340130190911401BC0180E00E94F70484E43D
S113035090E024E430E0F90120812360FC01208353
S113036084E490E020E4FC01208325E430E085E48B
S113037090E0FC0140818D819E81AF81B885842B02
S1130380F901808385E490E025E430E0F9012081DF
S11303902860FC0120838EE690E02EE630E0F9012F
S11303A020812160FC01208378944EC08AE290E091
S11303B02FEFFC012083BE016B5F7F4F2D853E85AF
S11303C04F85588989859A85AB85BC858B01BC018D
S11303D0CD010E9470048091130190911401BC011D
S11303E080E00E94F70484E490E024E430E0F90122
S11303F020812160FC01208384E490E020ECFC0156
S1130400208325E430E085E490E0FC0140818D8187
S11304109E81AF81B885842BF901808385E490E0C7
S113042025E430E0F90120812860FC0120838EE678
S113043090E02EE630E0F90120812160FC01208368
S1130440789402C080E001C080E061960FB6F89411
S1130450DEBF0FBECDBFDF91CF911F910F91FF90F3
S1130460EF900895EF92FF920F931F93CF93DF9332
S1130470CDB7DEB761970FB6F894DEBF0FBECDBF20
S113048069877A878B879C872D873E874F87588B10
S1130490098B10921E0110921D018989882F90E00A
S11304A08130910579F18430910509F469C0892B73
S11304B009F0A0C0BE016B5F7F4F2D853E854F853F
S11304C0588989859A85AB85BC858B01BC01CD0192
S11304D00E94700421E830E081E890E0FC01408152
S11304E08D819E81AF81B885842BF90180838FE64D
S11304F090E02FE630E0F90120812160FC012083A7
S113050078947AC0BE016B5F7F4F2D853E854F8501
S1130510588989859A85AB85BC857B01BE016F5F4F
S11305207F4F8B01BC01CD010E94BE0328E830E05F
S113053089819A81AB81BC81F9019183808321E80F
S113054030E081E890E0FC0140818D819E81AF81A3
S1130550B885842BF901808381E890E021E830E0BC
S1130560F90120812860FC0120838FE690E02FE6CA
S113057030E0F90120812260FC01208378943CC0A2
S11305808AE290E02AE230E0F90120812F7BFC012D
S11305902083BE016B5F7F4F2D853E854F85588933
S11305A089859A85AB85BC858B01BC01CD010E94F0
S11305B0700421E830E081E890E0FC0140818D8105
S11305C09E81AF81B885842BF901808381E890E016
S11305D021E830E0F90120812064FC0120838FE6CA
S11305E090E02FE630E0F90120812062FC012083B5
S11305F0789402C080E001C080E061960FB6F89460
S1130600DEBF0FBECDBFDF91CF911F910F91FF9041
S1130610EF9008958F929F92AF92BF92CF92DF9204
S1130620EF92FF920F931F93CF93DF93CDB7DEB773
S113063062970FB6F894DEBF0FBECDBF6F83788785
S113064089879A872B873C874D875E87188B0F870E
S1130650FA8AE98A1E821D825FC06B857C858D853E
S11306609E850E9466076B017C016F817885898570
S11306709A850E9466074B015C018D819E81880FDB
S1130680991F80509F4FFC0180819181CC01A0E093
S1130690B0E0BC01CD010E946607DC01CB019C01E6
S11306A0AD01C501B4010E94C506DC01CB0120E007
S11306B034E244E759E4BC01CD010E94C506DC01E3
S11306C0CB019C01AD01C701B6010E94F907DC0111
S11306D0CB0120E030E040E85FE3BC01CD010E94A3
S11306E05806DC01CB01BC01CD010E943707DC01B7
S11306F0CB0189839A83AB83BC8389819A81AB8143
S1130700BC818F3F9105A105B10561F058F08D8141
S11307109E8101969E838D838D819E81069708F428
S11307209CCF01C000002F85388989819A81AB81D3
S1130730BC81F90180839183A283B3838D819E81DF
S1130740CC01A0E0B0E029893A89F9018083918342
S1130750A283B383000062960FB6F894DEBF0FBE87
S1130760CDBFDF91CF911F910F91FF90EF90DF905C
S1130770CF90BF90AF909F908F9008958F929F924B
S1130780AF92BF92CF92DF92EF92FF920F931F939B
S1130790CF93DF93CDB7DEB762970FB6F894DEBF81
S11307A00FBECDBF6F83788789879A872B873C8755
S11307B04D875E87188B0F87FA8AE98A1E821D820D
S11307C05DC06B857C858D859E850E9466076B0167
S11307D07C016F81788589859A850E9466074B0123
S11307E05C018D819E81880F991F80509F4FFC0171
S11307F080819181CC01A0E0B0E0BC01CD010E94D8
S11308006607DC01CB019C01AD01C501B4010E9466
S1130810C506DC01CB0120E034E244E759E4BC0125
S1130820CD010E94C506DC01CB019C01AD01C701CD
S1130830B6010E94F907DC01CB0120E030E040E87A
S11308405FE3BC01CD010E945806DC01CB01BC0171
S1130850CD010E943707DC01CB0189839A83AB83E6
S1130860BC8389819A81AB81BC810097A140B10589
S113087058F08D819E8101969E838D838D819E810A
S1130880069708F49ECF01C000002F85388989811E
S11308909A81AB81BC81F90180839183A283B38364
S11308A08D819E81CC01A0E0B0E029893A89F901CB
S11308B080839183A283B383000062960FB6F89479
S11308C0DEBF0FBECDBFDF91CF911F910F91FF907F
S11308D0EF90DF90CF90BF90AF909F908F9008954E
S11308E0CF92DF92EF92FF920F931F93CF93DF93F8
S11308F0CDB7DEB72F970FB6F894DEBF0FBECDBFCE
S11309006E837F83888799872A873B874C875D8797
S11309101F870E8785E0898348C06E817F81888523
S113092099850E946607DC01CB019C01AD0160E062
S113093074E284E79DE40E94C506DC01CB016C01EE
S11309407D018981882F90E0880F991F80509F4FE7
S1130950FC0180819181CC01A0E0B0E0BC01CD011B
S11309600E946607DC01CB019C01AD01C701B60101
S11309700E94F907DC01CB018A839B83AC83BD838E
S11309806A857B858C859D850E946607DC01CB0189
S11309902A813B814C815D81BC01CD010E94F40719
S11309A0181644F08981815089838981882309F04C
S11309B0B4CF01C000008981882F90E0A0E0B0E0AE
S11309C02E853F85F90180839183A283B383000040
S11309D02F960FB6F894DEBF0FBECDBFDF91CF9137
S11309E01F910F91FF90EF90DF90CF900895CF93D8
S11309F0DF9300D01F92CDB7DEB789837B836A83F0
S1130A008981882F90E0892BD9F447E450E02A812A
S1130A103B816FEF629FC001639F900D11249695F7
S1130A208795969587959C01ABE7B4E10E948A0867
S1130A3096958795FA01808300008091100101C08A
S1130A4080E00F900F900F90DF91CF9108951F9247
S1130A500F9200905F000F9211242F933F938F9376
S1130A609F93EF93FF93CF93DF93CDB7DEB780913E
S1130A700C0190910D01019690930D0180930C014E
S1130A8082E290E022E230E0F90120812F5FFC0154
S1130A9020830000DF91CF91FF91EF919F918F917F
S1130AA03F912F910F9000925F000F901F90189527
S1130AB01F920F9200905F000F9211242F933F9387
S1130AC04F935F936F937F938F939F93AF93BF9352
S1130AD0EF93FF93CF93DF93CDB7DEB780910E01F1
S1130AE090910F01019690930F0180930E0182E281
S1130AF090E022E230E0F90120812F5FFC012083A5
S1130B0082E290E0FC0180818F3720F082E290E065
S1130B10FC0110828091110190911201892B61F0E6
S1130B2020911101309112018091190190911A01C3
S1130B3060E070E0F90109950000DF91CF91FF9129
S1130B40EF91BF91AF919F918F917F916F915F9141
S1130B504F913F912F910F9000925F000F901F9043
S1130B6018951F920F9200905F000F9211248F939B
S1130B709F93CF93DF93CDB7DEB780910C01909113
S1130B800D01019690930D0180930C010000DF91FB
S1130B90CF919F918F910F9000925F000F901F90C3
S1130BA018951F920F9200905F000F9211242F93BB
S1130BB03F934F935F936F937F938F939F93AF93E1
S1130BC0BF93EF93FF93CF93DF93CDB7DEB78091BD
S1130BD00E0190910F01019690930F0180930E01E5
S1130BE080911D0190911E01892B61F020911D01BE
S1130BF030911E0180911F019091200160E070E00E
S1130C00F90109950000DF91CF91FF91EF91BF9118
S1130C10AF919F918F917F916F915F914F913F9190
S1130C202F910F9000925F000F901F9018951F92C4
S1130C300F9200905F000F9211242F933F934F93D4
S1130C405F936F937F938F939F93AF93BF93EF9330
S1130C50FF93CF93DF93CDB7DEB7809115019091C9
S1130C601601892B81F0209115013091160186E837
S1130C7090E0FC014081518180911B0190911C0105
S1130C80BA01F90109950000DF91CF91FF91EF912D
S1130C90BF91AF919F918F917F916F915F914F9190
S1130CA03F912F910F9000925F000F901F90189525
S1130CB05058BB27AA270E9470060C94BA070E94BA
S1130CC0AC0738F00E94B30720F039F49F3F19F4C1
S1130CD026F40C94A9070EF4E095E7FB0C94A30703
S1130CE0E92F0E94CB0758F3BA17620773078407EA
S1130CF0950720F079F4A6F50C94ED070EF4E09531
S1130D000B2EBA2FA02D0B01B90190010C01CA01C1
S1130D10A0011124FF27591B99F0593F50F4503E6C
S1130D2068F11A16F040A22F232F342F4427585F5E
S1130D30F3CF469537952795A795F0405395C9F776
S1130D407EF41F16BA0B620B730B840BBAF091502E
S1130D50A1F0FF0FBB1F661F771F881FC2F70EC0CD
S1130D60BA0F621F731F841F48F4879577956795A0
S1130D70B795F7959E3F08F0B0CF9395880F08F08C
S1130D809927EE0F9795879508950E94D9060C949C
S1130D90BA070E94B30758F00E94AC0740F029F448
S1130DA05F3F29F00C94A30751110C94EE070C94A7
S1130DB0A9070E94CB0768F39923B1F3552391F354
S1130DC0951B550BBB27AA2762177307840738F0B6
S1130DD09F5F5F4F220F331F441FAA1FA9F335D013
S1130DE00E2E3AF0E0E832D091505040E695001CC7
S1130DF0CAF72BD0FE2F29D0660F771F881FBB1F81
S1130E00261737074807AB07B0E809F0BB0B802D5E
S1130E10BF01FF2793585F4F3AF09E3F510578F08A
S1130E200C94A3070C94EE075F3FE4F3983ED4F3CD
S1130E30869577956795B795F7959F5FC9F7880F5E
S1130E40911D9695879597F90895E1E0660F771FB0
S1130E50881FBB1F621773078407BA0720F0621B41
S1130E60730B840BBA0BEE1F88F7E09508950E946C
S1130E70D30788F09F5798F0B92F9927B751B0F04E
S1130E80E1F0660F771F881F991F1AF0BA95C9F70A
S1130E9014C0B13091F00E94ED07B1E008950C94B4
S1130EA0ED07672F782F8827B85F39F0B93FCCF367
S1130EB0869577956795B395D9F73EF49095809587
S1130EC0709561957F4F8F4F9F4F0895E89409C0A7
S1130ED097FB3EF490958095709561957F4F8F4F69
S1130EE09F4F9923A9F0F92F96E9BB279395F6957F
S1130EF0879577956795B795F111F8CFFAF4BB0FFD
S1130F0011F460FF1BC06F5F7F4F8F4F9F4F16C060
S1130F10882311F096E911C0772321F09EE8872FEA
S1130F20762F05C0662371F096E8862F70E060E0A6
S1130F302AF09A95660F771F881FDAF7880F96951F
S1130F40879597F9089597F99F6780E870E060E0C6
S1130F5008959FEF80EC089500240A94161617064E
S1130F6018060906089500240A9412161306140696
S1130F7005060895092E0394000C11F4882352F0F9
S1130F80BB0F40F4BF2B11F460FF04C06F5F7F4FB1
S1130F908F4F9F4F089557FD9058440F551F59F098
S1130FA05F3F71F04795880F97FB991F61F09F3F52
S1130FB079F087950895121613061406551FF2CF7B
S1130FC04695F1DF08C0161617061806991FF1CFCB
S1130FD086957105610508940895E894BB276627F2
S1130FE07727CB0197F908950E94660808F48FEFDC
S1130FF008950E940C080C94BA070E94AC0738F0BC
S11310000E94B30720F0952311F00C94A3070C94CD
S1131010A90711240C94EE070E94CB0770F3959F47
S1131020C1F3950F50E0551F629FF001729FBB27DB
S1131030F00DB11D639FAA27F00DB11DAA1F649F77
S11310406627B00DA11D661F829F2227B00DA11D2A
S1131050621F739FB00DA11D621F839FA00D611DB0
S1131060221F749F3327A00D611D231F849F600DD1
S1131070211D822F762F6A2F11249F5750409AF0FA
S1131080F1F088234AF0EE0FFF1FBB1F661F771F86
S1131090881F91505040A9F79E3F510580F00C9451
S11310A0A3070C94EE075F3FE4F3983ED4F38695D0
S11310B077956795B795F795E7959F5FC1F7FE2BF1
S11310C0880F911D9695879597F90895990F0008B3
S11310D0550FAA0BE0E8FEEF16161706E807F90706
S11310E0C0F012161306E407F50798F0621B730BA1
S11310F0840B950B39F40A2661F0232B242B252B22
S113110021F408950A2609F4A140A6958FEF811DC4
S1131110811D0895A29FB001B39FC001A39F700DCC
S1131120811D1124911DB29F700D811D1124911DEB
S10911300895F894FFCFBE
S10F11360100010008004000000100045A
S9030000FC
