:100000000C943E000C945B000C945B000C945B0021
:100010000C945B000C945B000C945B000C945B00F4
:100020000C945B000C945B000C945B000C945B00E4
:100030000C945B000C945B000C945B000C945B00D4
:100040000C945B000C945B000C945B000C945B00C4
:100050000C94BC040C9426040C945B000C945B0080
:100060000C945B000C945B000C945B000C945B00A4
:100070000C94F5040C9471040C945B0011241FBEC5
:10008000CFEFD0E1DEBFCDBF11E0A0E0B1E0E0E016
:10009000FEE002C005900D92A031B107D9F721E032
:1000A000A0E1B1E001C01D92A831B207E1F70E94C2
:1000B0002E050C94FE060C940000CF93DF93CDB771
:1000C000DEB728970FB6F894DEBF0FBECDBF988776
:1000D0008F8319821A821B821C8210C08D819E819F
:1000E00001969E838D8389819A81AB81BC81019623
:1000F000A11DB11D89839A83AB83BC838F819885B1
:100100009C0140E050E086E990E0DC010E94A005FF
:100110009B01AC0189819A81AB81BC8182179307D5
:10012000A407B507D8F2000028960FB6F894DEBFF2
:100130000FBECDBFDF91CF910895CF93DF9300D055
:100140001F92CDB7DEB78B8365E070E081E090E071
:100150000E94BA059A83898389819A81892B19F42F
:1001600080E090E020C08B81882F90E00E94D6052F
:100170009C0189819A81FC013383228389819A8140
:10018000FC0182819381892B39F489819A810E94B3
:10019000D90080E090E007C089819A812B81FC0121
:1001A000248389819A810F900F900F90DF91CF91D6
:1001B0000895CF93DF9300D0CDB7DEB79A838983BC
:1001C00089819A81892B99F089819A81FC018281A8
:1001D0009381892B39F089819A81FC0182819381F5
:1001E0000E946E0689819A810E946E0601C00000FD
:1001F0000F900F90DF91CF910895CF93DF9300D0B0
:1002000000D0CDB7DEB79B838A836C838A819B81C4
:10021000FC018181898389818F5F89838A819B81A8
:10022000FC0194818981981708F419828A819B8145
:10023000FC0190818981981711F480E016C08A81B1
:100240009B81FC01228133818A819B81FC01818118
:10025000882F90E0820F931F2C81FC0120838A81DC
:100260009B812981FC01218381E00F900F900F90E9
:100270000F90DF91CF910895CF93DF9300D000D0FE
:100280001F92CDB7DEB79B838A837D836C838A817F
:100290009B81FC01808189838A819B81FC01918102
:1002A0008981981711F480E024C089818F5F898348
:1002B0008A819B81FC0194818981981708F41982B5
:1002C0008A819B81FC01228133818A819B81FC018F
:1002D0008081882F90E0820F931FFC0120818C8108
:1002E0009D81FC0120838A819B812981FC012083DF
:1002F00081E00F900F900F900F900F90DF91CF91B2
:1003000008950F931F93CF93DF93CDB7DEB72B974D
:100310000FB6F894DEBF0FBECDBF8B834C835D83D9
:100320006E837F83088719872A873B878B8182307A
:1003300018F080E090E086C065E070E081E090E039
:100340000E94BA059A83898389819A81892B19F43D
:1003500080E090E077C089819A812B81FC01208325
:100360008D810E949D009C0189819A81FC013283CC
:1003700021838C810E949D009C0189819A81FC01CE
:100380003483238389819A81FC0181819281892B25
:1003900039F089819A81FC0183819481892B39F418
:1003A00089819A810E942D0280E090E04BC0F894F0
:1003B0008B81882F90E0019779F09E012C5F3F4F51
:1003C00088859985AA85BB85E981FA81AC01BD0143
:1003D000CF010E9413030FC09E012C5F3F4F888501
:1003E0009985AA85BB85E981FA81AC01BD01CF0160
:1003F0000E94720300008B81882F90E0880F991F64
:10040000805F9E4FFC0180819181892B61F08B81FF
:10041000882F90E0880F991F805F9E4FFC0180819C
:1004200091810E942D028B81882F90E0880F991F67
:10043000805F9E4F29813A81FC013183208378942B
:1004400089819A812B960FB6F894DEBF0FBECDBF7F
:10045000DF91CF911F910F910895CF93DF9300D03B
:10046000CDB7DEB79A83898389819A81892B09F474
:1004700042C0F89489819A81FC0181819281892B03
:1004800039F089819A81FC01818192810E94D90091
:1004900089819A81FC0183819481892B39F089813A
:1004A0009A81FC01838194810E94D90089819A817B
:1004B000FC018081882F90E0019729F081EC90E089
:1004C000FC01108205C089EC90E0FC011082000064
:1004D00089819A81FC018081882F90E0880F991F83
:1004E000805F9E4FFC011182108289819A810E9457
:1004F0006E06789401C000000F900F90DF91CF91AD
:100500000895CF93DF9300D000D000D0CDB7DEB7F1
:100510009B838A837D836C834E83198216C0898175
:10052000882F90E02C813D81820F931FFC01208158
:100530008A819B81FC0181819281622F0E94FD0052
:10054000882341F089818F5F898399818E819817F3
:1005500030F301C0000089818823F9F08A819B81F2
:10056000FC018081882F90E0009719F0019759F0E5
:1005700014C081EC90E021EC30E0F9012081206290
:10058000FC0120830AC089EC90E029EC30E0F901FD
:1005900020812062FC0120830000898126960FB60D
:1005A000F894DEBF0FBECDBFDF91CF910895CF93FA
:1005B000DF93CDB7DEB728970FB6F894DEBF0FBE36
:1005C000CDBF9D838C837F836E83488719821BC038
:1005D0008C819D81FC01838194819E012E5F3F4F20
:1005E000B9010E943C01882399F08981882F90E00D
:1005F0002E813F81820F931F2A813B81FC01208342
:1006000089818F5F898399818885981708F301C054
:100610000000898128960FB6F894DEBF0FBECDBFCB
:10062000DF91CF9108950F931F93CF93DF93CDB7B1
:10063000DEB729970FB6F894DEBF0FBECDBF9B8300
:100640008A834C835D836E837F833987288780EC20
:1006500090E0FC01108281EC90E0FC01108282ECC1
:1006600090E0FC01108204EC10E088859985FC0183
:10067000428153818C819D81AE81BF819E012F5F1C
:100680003F4FBC01CD010E94D103F80191838083CB
:100690008981882349F080EC90E020EC30E0F9017A
:1006A00020812260FC01208382EC90E022EC30E08B
:1006B000F90120812660FC01208381EC90E021EC8F
:1006C00030E0F90120812869FC012083000029968F
:1006D0000FB6F894DEBF0FBECDBFDF91CF911F9153
:1006E0000F9108950F931F93CF93DF93CDB7DEB78C
:1006F00029970FB6F894DEBF0FBECDBF9B838A83C8
:100700004C835D836E837F833987288788EC90E0F4
:10071000FC01108289EC90E0FC0110828AEC90E0F0
:10072000FC01108204EC10E088859985FC0142816F
:1007300053818C819D81AE81BF819E012F5F3F4F90
:10074000BC01CD010E94D103F8019183808389818E
:10075000882349F088EC90E028EC30E0F901208112
:100760002260FC0120838AEC90E02AEC30E0F90161
:1007700020812660FC01208389EC90E029EC30E0A8
:10078000F90120812869FC012083000029960FB619
:10079000F894DEBF0FBECDBFDF91CF911F910F91B7
:1007A0000895CF93DF93CDB7DEB72A970FB6F894AD
:1007B000DEBF0FBECDBF6B837C838D839E83588746
:1007C0004F833A8729878F819885CC01A0E0B0E0DC
:1007D000880F991FAA1FBB1F880F991FAA1FBB1F35
:1007E000880F991FAA1FBB1F880F991FAA1FBB1F25
:1007F0009C01AD018B819C81AD81BE81BC01CD018D
:100800000E947E05DA01C90101979A83898389854F
:100810009A85FC01108289819A818130904158F03B
:1008200089859A8521E0FC01208389819A819695AA
:1008300087959A83898389819A812A960FB6F8943D
:10084000DEBF0FBECDBFDF91CF9108951F920F92F3
:1008500000905F000F9211242F933F934F935F936B
:100860006F937F938F939F93AF93BF93EF93FF9378
:10087000CF93DF931F92CDB7DEB780911001909197
:100880001101FC01818192819E012F5F3F4FB901CF
:100890000E943C01882331F086EC90E02981FC0124
:1008A000208309C081EC90E021EC30E0F901208147
:1008B0002F7DFC01208300000F90DF91CF91FF91ED
:1008C000EF91BF91AF919F918F917F916F915F91C8
:1008D0004F913F912F910F9000925F000F901F90CA
:1008E00018951F920F9200905F000F9211242F9382
:1008F0003F934F935F936F937F938F939F93AF93A8
:10090000BF93EF93FF93CF93DF931F92CDB7DEB7E3
:100910008091120190911301FC01818192819E01CD
:100920002F5F3F4FB9010E943C01882331F08EECCC
:1009300090E02981FC01208309C089EC90E029EC3A
:1009400030E0F90120812F7DFC01208300000F9011
:10095000DF91CF91FF91EF91BF91AF919F918F91D7
:100960007F916F915F914F913F912F910F900092E6
:100970005F000F901F9018951F920F9200905F00DC
:100980000F9211242F933F934F935F936F937F9315
:100990008F939F93AF93BF93EF93FF93CF93DF9387
:1009A000CDB7DEB786EC90E0FC012081809110018C
:1009B00090911101FC0183819481622F0E94FD00BE
:1009C0000000DF91CF91FF91EF91BF91AF919F9187
:1009D0008F917F916F915F914F913F912F910F90E8
:1009E00000925F000F901F9018951F920F92009039
:1009F0005F000F9211242F933F934F935F936F9358
:100A00007F938F939F93AF93BF93EF93FF93CF9376
:100A1000DF93CDB7DEB78EEC90E0FC0120818091B2
:100A2000120190911301FC0183819481622F0E9435
:100A3000FD000000DF91CF91FF91EF91BF91AF9149
:100A40009F918F917F916F915F914F913F912F91E6
:100A50000F9000925F000F901F901895CF93DF9337
:100A6000CDB7DEB70E94390580E090E0DF91CF91ED
:100A700008950F931F93CF93DF93CDB7DEB76B9796
:100A80000FB6F894DEBF0FBECDBF80E895E29F831E
:100A90008E8384E18C8384E18D838C819D81AE8102
:100AA000BF8100E014E224EF30E0AC01BD0180E042
:100AB0000E9481019A8389839E01285F3F4F89812B
:100AC0009A8144E1B9010E94D7028B8384E690E0C9
:100AD0000E945D008B81882379F39E01285F3F4F40
:100AE00089819A814B81B9010E94810289819A8111
:100AF00041E06DE071E00E948102DECFA1E21A2E9A
:100B0000AA1BBB1BFD010DC0AA1FBB1FEE1FFF1FB1
:100B1000A217B307E407F50720F0A21BB30BE40B01
:100B2000F50B661F771F881F991F1A9469F7609548
:100B30007095809590959B01AC01BD01CF01089502
:100B40000E94AB05A59F900DB49F900DA49F800DB2
:100B5000911D11240895A29FB001B39FC001A39FCE
:100B6000700D811D1124911DB29F700D811D1124E6
:100B7000911D08950F931F93CF93DF93869F80015C
:100B8000879F100D969F100D1124C8010E94D60555
:100B9000EC01009729F0A80160E070E00E94F706E0
:100BA000CE01DF91CF911F910F9108950F931F9365
:100BB000CF93DF938230910510F482E090E0E091D2
:100BC0001601F091170120E030E0A0E0B0E030978E
:100BD00019F1408151810281138148175907C8F0EA
:100BE0008417950769F4109731F012960C931297B9
:100BF00013961C9327C0009316011093170122C06F
:100C00002115310519F04217530718F49A01BD0157
:100C1000EF01DF01F801DBCF21153105F9F0281BC9
:100C2000390B2430310580F48A819B81611571056F
:100C300021F0FB019383828304C09093170180937A
:100C40001601FE01329644C0FE01E20FF31F8193AC
:100C5000919322503109398328833AC0209114019D
:100C600030911501232B41F42091020130910301B1
:100C7000309315012093140120910001309101015E
:100C80002115310541F42DB73EB740910401509133
:100C90000501241B350BE0911401F0911501E217B9
:100CA000F307A0F42E1B3F0B2817390778F0AC018F
:100CB0004E5F5F4F2417350748F04E0F5F1F50936C
:100CC0001501409314018193919302C0E0E0F0E09C
:100CD000CF01DF91CF911F910F910895CF93DF93B3
:100CE000009709F481C0FC01329713821282A0910F
:100CF0001601B0911701109781F420813181820F84
:100D0000931F20911401309115012817390751F5CF
:100D1000F0931501E093140167C0ED0120E030E08D
:100D2000CE17DF0740F44A815B819E0141155105D2
:100D3000F1F0EA01F5CFD383C28340815181840F62
:100D4000951FC817D90759F488819981840F951F79
:100D50000296918380838A819B819383828321156C
:100D6000310529F4F0931701E09316013DC0E90124
:100D7000FB83EA8349915991C40FD51FEC17FD07F6
:100D800061F480819181840F951F0296E901998316
:100D90008883828193819B838A83E0E0F0E01296CE
:100DA0008D919C911397009719F0FD01DC01F7CF0D
:100DB0008D919C9111979D012E5F3F4F820F931F44
:100DC00020911401309115012817390769F43097E3
:100DD00029F4109217011092160102C01382128298
:100DE000B0931501A0931401DF91CF910895DC0118
:100DF00001C06D9341505040E0F70895F894FFCF43
:100E0000000018012000313233343520002000006A
:00000001FF
