:100000000C943E000C9453000C9453000C94530039
:100010000C9453000C9453000C9453000C94530014
:100020000C9453000C9453000C9453000C94530004
:100030000C9453000C9453000C9453000C945300F4
:100040000C9453000C9453000C9453000C945300E4
:100050000C9453000C9453000C9453000C945300D4
:100060000C9453000C9453000C9453000C945300C4
:100070000C9453000C9453000C94530011241FBE95
:10008000CFEFD0E1DEBFCDBF11E0A0E0B1E0E6E808
:10009000F5E002C005900D92A430B107D9F70E9497
:1000A0007B020C94C1020C940000CF93DF93CDB778
:1000B000DEB72D970FB6F894DEBF0FBECDBF6E83AF
:1000C0007F83888799872A873B874C875D871D8236
:1000D00037C08A859B85AC85BD852E813F8148854B
:1000E0005985BC01CD010E949F02DA01C9014097E8
:1000F000A109B1092D81222F30E020503F4FF90195
:100100002081222F30E0220F331F032E000C440BDE
:10011000550BBC01CD010E949F02DA01C901898300
:100120009A83AB83BC8389819A81AB81BC818F3FE9
:100130009105A105B10541F038F08D818F5F8D8368
:100140008D81843030F201C0000087E290E027E228
:1001500030E0F90120812370FC01208388E290E0E7
:1001600028E230E0F90120812360FC01208388EB44
:1001700090E028EB30E0F90130812981232BFC014C
:10018000208389EB90E029EB30E0F90130812D816B
:10019000232BFC01208381E02D960FB6F894DEBF5F
:1001A0000FBECDBFDF91CF910895CF93DF93CDB731
:1001B000DEB727970FB6F894DEBF0FBECDBF8B8397
:1001C0007D836C835F834E830E947801882311F4C2
:1001D00080E02CC08B818E7F0E94A501882321F4B2
:1001E0000E94980180E022C01A82198215C02C81D9
:1001F0003D8189819A81820F931FFC0180810E9439
:10020000E201882321F40E94980180E00FC08981D7
:100210009A8101969A83898329813A818E819F816F
:100220002817390720F30E94980180E027960FB61F
:10023000F894DEBF0FBECDBFDF91CF910895CF936D
:10024000DF93CDB7DEB727970FB6F894DEBF0FBEAA
:10025000CDBF8B837D836C835F834E830E94780147
:10026000882311F480E03BC08B8181600E94A5014E
:10027000882321F40E94980180E031C01A821982FB
:1002800013C02C813D8189819A81820F931F0E9426
:100290001F02882321F40E94980180E020C08981F8
:1002A0009A8101969A8389838E819F819C01215036
:1002B000310989819A818217930718F32C813D8136
:1002C00089819A81820F931F0E944D02882321F415
:1002D0000E94980180E003C00E94980180E0279668
:1002E0000FB6F894DEBF0FBECDBFDF91CF9108955A
:1002F000CF93DF93CDB7DEB78CEB90E024EAFC011F
:10030000208300008CEB90E0FC0180818823D4F7EF
:1003100089EB90E0FC018081882F90E0887F99270D
:10032000089711F080E001C081E0DF91CF9108953E
:10033000CF93DF93CDB7DEB78CEB90E024E9FC01DF
:1003400020830000DF91CF910895CF93DF931F9218
:10035000CDB7DEB7898389EB90E0FC01808121E095
:10036000883009F420E089EB90E0FC01908181E085
:10037000903109F480E0822B882311F080E01EC0C8
:100380008BEB90E02981FC0120838CEB90E024E84A
:10039000FC01208300008CEB90E0FC01808188232D
:1003A000D4F789EB90E0FC018081882F90E0887F72
:1003B0009927489711F080E001C081E00F90DF910C
:1003C000CF910895CF93DF931F92CDB7DEB7898386
:1003D00089EB90E0FC01808121E0883009F420E085
:1003E00089EB90E0FC01908181E0903109F480E09C
:1003F000822B882311F080E01EC08BEB90E02981D6
:10040000FC0120838CEB90E024E8FC0120830000B9
:100410008CEB90E0FC0180818823D4F789EB90E09D
:10042000FC018081882F90E0887F9927889711F0C0
:1004300080E001C081E00F90DF91CF910895CF93CC
:10044000DF9300D0CDB7DEB79A8389838CEB90E041
:1004500024ECFC01208300008CEB90E0FC01808107
:100460008823D4F789EB90E0FC018081882F90E00D
:10047000887F99278035910511F080E009C08BEBCA
:1004800090E0FC01208189819A81FC01208381E038
:100490000F900F90DF91CF910895CF93DF9300D00D
:1004A000CDB7DEB79A8389838CEB90E024E8FC011A
:1004B000208300008CEB90E0FC0180818823D4F73E
:1004C00089EB90E0FC018081882F90E0887F99275C
:1004D0008835910511F080E009C08BEB90E0FC01BC
:1004E000208189819A81FC01208381E00F900F9007
:1004F000DF91CF910895CF93DF9300D000D000D04B
:10050000CDB7DEB781E0898320E034E244EF50E0EC
:1005100068EE73E080E090E00E94550041E050E01A
:10052000CE010196BC0180EA0E94D500CE01029660
:1005300045E050E0BC0180EA0E941F01EFCFA1E23C
:100540001A2EAA1BBB1BFD010DC0AA1FBB1FEE1F4D
:10055000FF1FA217B307E407F50720F0A21BB30B98
:10056000E40BF50B661F771F881F991F1A9469F714
:1005700060957095809590959B01AC01BD01CF0170
:060580000895F894FFCF7E
:04058600010410401C
:00000001FF
